{
  "contractName": "BookDonation",
  "abi": [
    {
      "inputs": [],
      "stateMutability": "nonpayable",
      "type": "constructor"
    },
    {
      "anonymous": false,
      "inputs": [
        {
          "indexed": false,
          "internalType": "uint256",
          "name": "id",
          "type": "uint256"
        },
        {
          "indexed": false,
          "internalType": "address",
          "name": "creator",
          "type": "address"
        },
        {
          "indexed": false,
          "internalType": "uint256",
          "name": "target",
          "type": "uint256"
        }
      ],
      "name": "CampaignCreated",
      "type": "event"
    },
    {
      "anonymous": false,
      "inputs": [
        {
          "indexed": false,
          "internalType": "uint256",
          "name": "id",
          "type": "uint256"
        },
        {
          "indexed": false,
          "internalType": "uint256",
          "name": "campaignId",
          "type": "uint256"
        },
        {
          "indexed": false,
          "internalType": "address",
          "name": "donor",
          "type": "address"
        },
        {
          "indexed": false,
          "internalType": "uint256",
          "name": "amount",
          "type": "uint256"
        },
        {
          "indexed": false,
          "internalType": "string",
          "name": "details",
          "type": "string"
        }
      ],
      "name": "NewDonation",
      "type": "event"
    },
    {
      "inputs": [],
      "name": "campaignCount",
      "outputs": [
        {
          "internalType": "uint256",
          "name": "",
          "type": "uint256"
        }
      ],
      "stateMutability": "view",
      "type": "function",
      "constant": true
    },
    {
      "inputs": [],
      "name": "campaignFee",
      "outputs": [
        {
          "internalType": "uint256",
          "name": "",
          "type": "uint256"
        }
      ],
      "stateMutability": "view",
      "type": "function",
      "constant": true
    },
    {
      "inputs": [
        {
          "internalType": "uint256",
          "name": "",
          "type": "uint256"
        },
        {
          "internalType": "uint256",
          "name": "",
          "type": "uint256"
        }
      ],
      "name": "campaignToDonationIds",
      "outputs": [
        {
          "internalType": "uint256",
          "name": "",
          "type": "uint256"
        }
      ],
      "stateMutability": "view",
      "type": "function",
      "constant": true
    },
    {
      "inputs": [
        {
          "internalType": "uint256",
          "name": "",
          "type": "uint256"
        }
      ],
      "name": "campaigns",
      "outputs": [
        {
          "internalType": "uint256",
          "name": "id",
          "type": "uint256"
        },
        {
          "internalType": "address",
          "name": "creator",
          "type": "address"
        },
        {
          "internalType": "uint256",
          "name": "targetAmount",
          "type": "uint256"
        },
        {
          "internalType": "uint256",
          "name": "currentAmount",
          "type": "uint256"
        },
        {
          "internalType": "bool",
          "name": "isOpen",
          "type": "bool"
        }
      ],
      "stateMutability": "view",
      "type": "function",
      "constant": true
    },
    {
      "inputs": [],
      "name": "donationCount",
      "outputs": [
        {
          "internalType": "uint256",
          "name": "",
          "type": "uint256"
        }
      ],
      "stateMutability": "view",
      "type": "function",
      "constant": true
    },
    {
      "inputs": [
        {
          "internalType": "uint256",
          "name": "",
          "type": "uint256"
        }
      ],
      "name": "donations",
      "outputs": [
        {
          "internalType": "uint256",
          "name": "id",
          "type": "uint256"
        },
        {
          "internalType": "uint256",
          "name": "campaignId",
          "type": "uint256"
        },
        {
          "internalType": "address",
          "name": "donor",
          "type": "address"
        },
        {
          "internalType": "uint256",
          "name": "amount",
          "type": "uint256"
        },
        {
          "internalType": "string",
          "name": "bookDetails",
          "type": "string"
        },
        {
          "internalType": "uint256",
          "name": "timestamp",
          "type": "uint256"
        }
      ],
      "stateMutability": "view",
      "type": "function",
      "constant": true
    },
    {
      "inputs": [],
      "name": "owner",
      "outputs": [
        {
          "internalType": "address",
          "name": "",
          "type": "address"
        }
      ],
      "stateMutability": "view",
      "type": "function",
      "constant": true
    },
    {
      "inputs": [
        {
          "internalType": "uint256",
          "name": "_targetAmount",
          "type": "uint256"
        }
      ],
      "name": "createCampaignPaid",
      "outputs": [],
      "stateMutability": "payable",
      "type": "function",
      "payable": true
    },
    {
      "inputs": [
        {
          "internalType": "uint256",
          "name": "_campaignId",
          "type": "uint256"
        }
      ],
      "name": "approveCampaignAndPay",
      "outputs": [],
      "stateMutability": "nonpayable",
      "type": "function"
    },
    {
      "inputs": [
        {
          "internalType": "uint256",
          "name": "_campaignId",
          "type": "uint256"
        },
        {
          "internalType": "string",
          "name": "_bookDetails",
          "type": "string"
        }
      ],
      "name": "donate",
      "outputs": [],
      "stateMutability": "payable",
      "type": "function",
      "payable": true
    },
    {
      "inputs": [],
      "name": "withdrawFees",
      "outputs": [],
      "stateMutability": "nonpayable",
      "type": "function"
    }
  ],
  "bytecode": "0x6080604052662386f26fc100006001556000600255600060035534801561002557600080fd5b50600080546001600160a01b03191633179055610bf4806100476000396000f3fe60806040526004361061009c5760003560e01c80638a5be9b7116100645780638a5be9b7146101a15780638d59d1f1146101b75780638da5cb5b146101ca578063d86d8c1e14610202578063f72ca20814610215578063f8626af81461023557600080fd5b8063141961bc146100a15780632abfab4d146101305780633ba6c9b814610154578063476343ee146101745780637274e30d1461018b575b600080fd5b3480156100ad57600080fd5b506100f96100bc366004610858565b60046020819052600091825260409091208054600182015460028301546003840154939094015491936001600160a01b0390911692909160ff1685565b604080519586526001600160a01b0390941660208601529284019190915260608301521515608082015260a0015b60405180910390f35b34801561013c57600080fd5b5061014660035481565b604051908152602001610127565b34801561016057600080fd5b5061014661016f366004610871565b610267565b34801561018057600080fd5b50610189610298565b005b34801561019757600080fd5b5061014660025481565b3480156101ad57600080fd5b5061014660015481565b6101896101c53660046108a9565b61037f565b3480156101d657600080fd5b506000546101ea906001600160a01b031681565b6040516001600160a01b039091168152602001610127565b610189610210366004610858565b61051d565b34801561022157600080fd5b50610189610230366004610858565b610645565b34801561024157600080fd5b50610255610250366004610858565b61078f565b604051610127969594939291906109aa565b6006602052816000526040600020818154811061028357600080fd5b90600052602060002001600091509150505481565b6000546001600160a01b031633146102e55760405162461bcd60e51b815260206004820152600b60248201526a213ab5b0b71030b236b4b760a91b60448201526064015b60405180910390fd5b600080546040514792916001600160a01b03169083908381818185875af1925050503d8060008114610333576040519150601f19603f3d011682016040523d82523d6000602084013e610338565b606091505b505090508061037b5760405162461bcd60e51b815260206004820152600f60248201526e15da5d1a191c985dc819985a5b1959608a1b60448201526064016102dc565b5050565b6000828152600460208190526040909120015460ff166103da5760405162461bcd60e51b815260206004820152601660248201527504b616d70616e796520737564616820646974757475760541b60448201526064016102dc565b600380549060006103ea83610a06565b90915550506040805160c081018252600380548083526020808401878152338587019081523460608701908152608087018981524260a08901526000958652600590945296909320855181559051600182015591516002830180546001600160a01b0319166001600160a01b039092169190911790559351918101919091559151909190600482019061047d9082610aa7565b5060a09190910151600590910155600082815260046020526040812060030180543492906104ac908490610b67565b90915550506000828152600660209081526040808320600380548254600181018455928652939094200191909155905490517f3c3b44e1ab33da12078cac96e7aa5a3706fe93a9df720b71e866a7c535cb525a91610511918590339034908790610b80565b60405180910390a15050565b6001543410156105675760405162461bcd60e51b815260206004820152601560248201527442696179612063616d706169676e206b7572616e6760581b60448201526064016102dc565b6002805490600061057783610a06565b90915550506040805160a0810182526002805480835233602080850182815285870188815260006060808901828152600160808b018181529884526004808852938c90209a518b559451948a0180546001600160a01b0319166001600160a01b03909616959095179094559151888801559151600388015593519501805460ff19169515159590951790945591548451908152928301919091529181018390527f63e3678c8493a16f8ba43ae9e547231762ca04526dac2c388bd2c26d89401851910160405180910390a150565b6000546001600160a01b0316331461068d5760405162461bcd60e51b815260206004820152600b60248201526a213ab5b0b71030b236b4b760a91b60448201526064016102dc565b60008181526004602081905260409091209081015460ff166106e45760405162461bcd60e51b815260206004820152601060248201526f10d85b5c185a59db881a5b9d985b1a5960821b60448201526064016102dc565b60048101805460ff19169055600080546001546040516001600160a01b03909216918381818185875af1925050503d806000811461073e576040519150601f19603f3d011682016040523d82523d6000602084013e610743565b606091505b505090508061078a5760405162461bcd60e51b8152602060048201526013602482015272119959481d1c985b9cd9995c8819985a5b1959606a1b60448201526064016102dc565b505050565b60056020526000908152604090208054600182015460028301546003840154600485018054949593946001600160a01b039093169391926107cf90610a1f565b80601f01602080910402602001604051908101604052809291908181526020018280546107fb90610a1f565b80156108485780601f1061081d57610100808354040283529160200191610848565b820191906000526020600020905b81548152906001019060200180831161082b57829003601f168201915b5050505050908060050154905086565b60006020828403121561086a57600080fd5b5035919050565b6000806040838503121561088457600080fd5b50508035926020909101359150565b634e487b7160e01b600052604160045260246000fd5b600080604083850312156108bc57600080fd5b82359150602083013567ffffffffffffffff808211156108db57600080fd5b818501915085601f8301126108ef57600080fd5b81358181111561090157610901610893565b604051601f8201601f19908116603f0116810190838211818310171561092957610929610893565b8160405282815288602084870101111561094257600080fd5b8260208601602083013760006020848301015280955050505050509250929050565b6000815180845260005b8181101561098a5760208185018101518683018201520161096e565b506000602082860101526020601f19601f83011685010191505092915050565b86815285602082015260018060a01b038516604082015283606082015260c0608082015260006109dd60c0830185610964565b90508260a0830152979650505050505050565b634e487b7160e01b600052601160045260246000fd5b600060018201610a1857610a186109f0565b5060010190565b600181811c90821680610a3357607f821691505b602082108103610a5357634e487b7160e01b600052602260045260246000fd5b50919050565b601f82111561078a57600081815260208120601f850160051c81016020861015610a805750805b601f850160051c820191505b81811015610a9f57828155600101610a8c565b505050505050565b815167ffffffffffffffff811115610ac157610ac1610893565b610ad581610acf8454610a1f565b84610a59565b602080601f831160018114610b0a5760008415610af25750858301515b600019600386901b1c1916600185901b178555610a9f565b600085815260208120601f198616915b82811015610b3957888601518255948401946001909101908401610b1a565b5085821015610b575787850151600019600388901b60f8161c191681555b5050505050600190811b01905550565b80820180821115610b7a57610b7a6109f0565b92915050565b85815284602082015260018060a01b038416604082015282606082015260a060808201526000610bb360a0830184610964565b97965050505050505056fea26469706673582212200f57e6f0016bf57c4a0500d16368298cb94e65b3d0f9a26ea7f9c3baac01556364736f6c63430008150033",
  "immutableReferences": {},
  "source": "// SPDX-License-Identifier: MIT\r\npragma solidity ^0.8.0;\r\n\r\ncontract BookDonation {\r\n\r\n    address public owner;\r\n    uint public campaignFee = 0.01 ether;\r\n\r\n    constructor() {\r\n        owner = msg.sender;\r\n    }\r\n\r\n    struct Donation {\r\n        uint id;\r\n        uint campaignId;\r\n        address donor;\r\n        uint amount;\r\n        string bookDetails;\r\n        uint timestamp;\r\n    }\r\n\r\n    struct Campaign {\r\n        uint id;\r\n        address creator;\r\n        uint targetAmount;\r\n        uint currentAmount;\r\n        bool isOpen;\r\n    }\r\n\r\n    uint public campaignCount = 0;\r\n    uint public donationCount = 0;\r\n\r\n    mapping(uint => Campaign) public campaigns;\r\n    mapping(uint => Donation) public donations;\r\n    mapping(uint => uint[]) public campaignToDonationIds;\r\n\r\n    event CampaignCreated(uint id, address creator, uint target);\r\n    event NewDonation(uint id, uint campaignId, address donor, uint amount, string details);\r\n\r\n    //  CREATE CAMPAIGN + BAYAR FEE\r\n    function createCampaignPaid(uint _targetAmount) public payable {\r\n        require(msg.value >= campaignFee, \"Biaya campaign kurang\");\r\n\r\n        campaignCount++;\r\n        campaigns[campaignCount] = Campaign(\r\n            campaignCount,\r\n            msg.sender,\r\n            _targetAmount,\r\n            0,\r\n            true\r\n        );\r\n\r\n        emit CampaignCreated(campaignCount, msg.sender, _targetAmount);\r\n    }\r\n\r\n    function approveCampaignAndPay(uint _campaignId) public {\r\n        require(msg.sender == owner, \"Bukan admin\");\r\n\r\n        Campaign storage c = campaigns[_campaignId];\r\n        require(c.isOpen, \"Campaign invalid\");\r\n\r\n        //  cegah approve ulang\r\n        c.isOpen = false;\r\n\r\n        //  transfer fee ke admin (CALL, bukan transfer)\r\n        (bool success, ) = payable(owner).call{value: campaignFee}(\"\");\r\n        require(success, \"Fee transfer failed\");\r\n    }\r\n\r\n    //  DONATE TETAP\r\n    function donate(uint _campaignId, string memory _bookDetails) public payable {\r\n        require(campaigns[_campaignId].isOpen, \"Kampanye sudah ditutup\");\r\n\r\n        donationCount++;\r\n\r\n        donations[donationCount] = Donation(\r\n            donationCount,\r\n            _campaignId,\r\n            msg.sender,\r\n            msg.value,\r\n            _bookDetails,\r\n            block.timestamp\r\n        );\r\n\r\n        campaigns[_campaignId].currentAmount += msg.value;\r\n        campaignToDonationIds[_campaignId].push(donationCount);\r\n\r\n        emit NewDonation(donationCount, _campaignId, msg.sender, msg.value, _bookDetails);\r\n    }\r\n\r\n    function withdrawFees() public {\r\n        require(msg.sender == owner, \"Bukan admin\");\r\n\r\n        uint amount = address(this).balance;\r\n\r\n        (bool success, ) = payable(owner).call{value: amount}(\"\");\r\n        require(success, \"Withdraw failed\");\r\n    }\r\n}\r\n",
  "sourcePath": "D:\\FOLDER A\\blockchain\\contracts\\BookDonation.sol",
  "compiler": {
    "name": "solc",
    "version": "0.8.21+commit.d9974bed.Emscripten.clang"
  },
  "schemaVersion": "3.4.16",
  "updatedAt": "2025-12-14T21:43:42.075Z",
  "networkType": "ethereum",
  "devdoc": {
    "kind": "dev",
    "methods": {},
    "version": 1
  },
  "userdoc": {
    "kind": "user",
    "methods": {},
    "version": 1
  }
}