{
  "contractName": "BookDonation",
  "abi": [
    {
      "anonymous": false,
      "inputs": [
        {
          "indexed": false,
          "internalType": "uint256",
          "name": "id",
          "type": "uint256"
        },
        {
          "indexed": false,
          "internalType": "address",
          "name": "creator",
          "type": "address"
        },
        {
          "indexed": false,
          "internalType": "uint256",
          "name": "target",
          "type": "uint256"
        }
      ],
      "name": "CampaignCreated",
      "type": "event"
    },
    {
      "anonymous": false,
      "inputs": [
        {
          "indexed": false,
          "internalType": "uint256",
          "name": "id",
          "type": "uint256"
        },
        {
          "indexed": false,
          "internalType": "uint256",
          "name": "campaignId",
          "type": "uint256"
        },
        {
          "indexed": false,
          "internalType": "address",
          "name": "donor",
          "type": "address"
        },
        {
          "indexed": false,
          "internalType": "uint256",
          "name": "amount",
          "type": "uint256"
        },
        {
          "indexed": false,
          "internalType": "string",
          "name": "details",
          "type": "string"
        }
      ],
      "name": "NewDonation",
      "type": "event"
    },
    {
      "inputs": [],
      "name": "campaignCount",
      "outputs": [
        {
          "internalType": "uint256",
          "name": "",
          "type": "uint256"
        }
      ],
      "stateMutability": "view",
      "type": "function",
      "constant": true
    },
    {
      "inputs": [
        {
          "internalType": "uint256",
          "name": "",
          "type": "uint256"
        },
        {
          "internalType": "uint256",
          "name": "",
          "type": "uint256"
        }
      ],
      "name": "campaignToDonationIds",
      "outputs": [
        {
          "internalType": "uint256",
          "name": "",
          "type": "uint256"
        }
      ],
      "stateMutability": "view",
      "type": "function",
      "constant": true
    },
    {
      "inputs": [
        {
          "internalType": "uint256",
          "name": "",
          "type": "uint256"
        }
      ],
      "name": "campaigns",
      "outputs": [
        {
          "internalType": "uint256",
          "name": "id",
          "type": "uint256"
        },
        {
          "internalType": "address",
          "name": "creator",
          "type": "address"
        },
        {
          "internalType": "uint256",
          "name": "targetAmount",
          "type": "uint256"
        },
        {
          "internalType": "uint256",
          "name": "currentAmount",
          "type": "uint256"
        },
        {
          "internalType": "bool",
          "name": "isOpen",
          "type": "bool"
        }
      ],
      "stateMutability": "view",
      "type": "function",
      "constant": true
    },
    {
      "inputs": [],
      "name": "donationCount",
      "outputs": [
        {
          "internalType": "uint256",
          "name": "",
          "type": "uint256"
        }
      ],
      "stateMutability": "view",
      "type": "function",
      "constant": true
    },
    {
      "inputs": [
        {
          "internalType": "uint256",
          "name": "",
          "type": "uint256"
        }
      ],
      "name": "donations",
      "outputs": [
        {
          "internalType": "uint256",
          "name": "id",
          "type": "uint256"
        },
        {
          "internalType": "uint256",
          "name": "campaignId",
          "type": "uint256"
        },
        {
          "internalType": "address",
          "name": "donor",
          "type": "address"
        },
        {
          "internalType": "uint256",
          "name": "amount",
          "type": "uint256"
        },
        {
          "internalType": "string",
          "name": "bookDetails",
          "type": "string"
        },
        {
          "internalType": "uint256",
          "name": "timestamp",
          "type": "uint256"
        }
      ],
      "stateMutability": "view",
      "type": "function",
      "constant": true
    },
    {
      "inputs": [
        {
          "internalType": "uint256",
          "name": "_targetAmount",
          "type": "uint256"
        }
      ],
      "name": "createCampaign",
      "outputs": [],
      "stateMutability": "nonpayable",
      "type": "function"
    },
    {
      "inputs": [
        {
          "internalType": "uint256",
          "name": "_campaignId",
          "type": "uint256"
        },
        {
          "internalType": "string",
          "name": "_bookDetails",
          "type": "string"
        }
      ],
      "name": "donate",
      "outputs": [],
      "stateMutability": "payable",
      "type": "function",
      "payable": true
    }
  ],
  "bytecode": "0x608060405260008055600060015534801561001957600080fd5b506108db806100296000396000f3fe6080604052600436106100705760003560e01c80637274e30d1161004e5780637274e30d146101465780638d59d1f11461015c578063a3303a7514610171578063f8626af81461019157600080fd5b8063141961bc146100755780632abfab4d146101025780633ba6c9b814610126575b600080fd5b34801561008157600080fd5b506100cb61009036600461053e565b60026020819052600091825260409091208054600182015492820154600383015460049093015491936001600160a01b031692909160ff1685565b604080519586526001600160a01b0390941660208601529284019190915260608301521515608082015260a0015b60405180910390f35b34801561010e57600080fd5b5061011860015481565b6040519081526020016100f9565b34801561013257600080fd5b50610118610141366004610557565b6101c3565b34801561015257600080fd5b5061011860005481565b61016f61016a36600461058f565b6101f4565b005b34801561017d57600080fd5b5061016f61018c36600461053e565b610394565b34801561019d57600080fd5b506101b16101ac36600461053e565b610472565b6040516100f996959493929190610690565b600460205281600052604060002081815481106101df57600080fd5b90600052602060002001600091509150505481565b60008281526002602052604090206004015460ff166102525760405162461bcd60e51b815260206004820152601660248201527504b616d70616e796520737564616820646974757475760541b604482015260640160405180910390fd5b60018054906000610262836106ec565b90915550506040805160c081018252600180548083526020808401878152338587019081523460608701908152608087018981524260a08901526000958652600394859052979094208651815591519482019490945592516002840180546001600160a01b0319166001600160a01b03909216919091179055905190820155915190919060048201906102f5908261078e565b5060a091909101516005909101556000828152600260205260408120600301805434929061032490849061084e565b909155505060008281526004602090815260408083206001805482548083018455928652939094200191909155905490517f3c3b44e1ab33da12078cac96e7aa5a3706fe93a9df720b71e866a7c535cb525a91610388918590339034908790610867565b60405180910390a15050565b6000805490806103a3836106ec565b90915550506040805160a081018252600080548083523360208085018281528587018881526060808801878152600160808a0181815297895260028087528b8a209a518b559451908a0180546001600160a01b0319166001600160a01b0390921691909117905591519288019290925551600387015592516004909501805460ff19169515159590951790945591548451908152928301919091529181018390527f63e3678c8493a16f8ba43ae9e547231762ca04526dac2c388bd2c26d89401851910160405180910390a150565b600360208190526000918252604090912080546001820154600283015493830154600484018054939592946001600160a01b03909316939192916104b590610705565b80601f01602080910402602001604051908101604052809291908181526020018280546104e190610705565b801561052e5780601f106105035761010080835404028352916020019161052e565b820191906000526020600020905b81548152906001019060200180831161051157829003601f168201915b5050505050908060050154905086565b60006020828403121561055057600080fd5b5035919050565b6000806040838503121561056a57600080fd5b50508035926020909101359150565b634e487b7160e01b600052604160045260246000fd5b600080604083850312156105a257600080fd5b82359150602083013567ffffffffffffffff808211156105c157600080fd5b818501915085601f8301126105d557600080fd5b8135818111156105e7576105e7610579565b604051601f8201601f19908116603f0116810190838211818310171561060f5761060f610579565b8160405282815288602084870101111561062857600080fd5b8260208601602083013760006020848301015280955050505050509250929050565b6000815180845260005b8181101561067057602081850181015186830182015201610654565b506000602082860101526020601f19601f83011685010191505092915050565b86815285602082015260018060a01b038516604082015283606082015260c0608082015260006106c360c083018561064a565b90508260a0830152979650505050505050565b634e487b7160e01b600052601160045260246000fd5b6000600182016106fe576106fe6106d6565b5060010190565b600181811c9082168061071957607f821691505b60208210810361073957634e487b7160e01b600052602260045260246000fd5b50919050565b601f82111561078957600081815260208120601f850160051c810160208610156107665750805b601f850160051c820191505b8181101561078557828155600101610772565b5050505b505050565b815167ffffffffffffffff8111156107a8576107a8610579565b6107bc816107b68454610705565b8461073f565b602080601f8311600181146107f157600084156107d95750858301515b600019600386901b1c1916600185901b178555610785565b600085815260208120601f198616915b8281101561082057888601518255948401946001909101908401610801565b508582101561083e5787850151600019600388901b60f8161c191681555b5050505050600190811b01905550565b80820180821115610861576108616106d6565b92915050565b85815284602082015260018060a01b038416604082015282606082015260a06080820152600061089a60a083018461064a565b97965050505050505056fea2646970667358221220c5d55f4f31b0ac46090d404e21e0e2cee15e94edc44e9776a08d083aaabe28b064736f6c63430008150033",
  "immutableReferences": {},
  "source": "// SPDX-License-Identifier: MIT\r\npragma solidity ^0.8.0;\r\n\r\ncontract BookDonation {\r\n    // 1. DATA STRUKTUR\r\n    struct Donation {\r\n        uint id;\r\n        uint campaignId;\r\n        address donor;\r\n        uint amount;       // Jumlah ETH donasi (bisa dianggap sebagai biaya operasional/nilai buku)\r\n        string bookDetails; // Deskripsi buku yang didonasikan\r\n        uint timestamp;\r\n    }\r\n\r\n    struct Campaign {\r\n        uint id;\r\n        address creator;\r\n        uint targetAmount;\r\n        uint currentAmount;\r\n        bool isOpen;\r\n    }\r\n\r\n    // 2. PENYIMPANAN DATA\r\n    uint public campaignCount = 0;\r\n    uint public donationCount = 0;\r\n    \r\n    mapping(uint => Campaign) public campaigns;\r\n    mapping(uint => Donation) public donations; // Menyimpan detail tiap donasi\r\n    \r\n    // Mapping agar kita bisa cari donasi apa saja di kampanye X\r\n    mapping(uint => uint[]) public campaignToDonationIds;\r\n\r\n    // 3. EVENT (Untuk Log Admin)\r\n    event CampaignCreated(uint id, address creator, uint target);\r\n    event NewDonation(uint id, uint campaignId, address donor, uint amount, string details);\r\n\r\n    // 4. FUNGSI UTAMA\r\n\r\n    // Kreator membuat kampanye\r\n    function createCampaign(uint _targetAmount) public {\r\n        campaignCount++;\r\n        campaigns[campaignCount] = Campaign(campaignCount, msg.sender, _targetAmount, 0, true);\r\n        emit CampaignCreated(campaignCount, msg.sender, _targetAmount);\r\n    }\r\n\r\n    // Donatur mengirim donasi\r\n    function donate(uint _campaignId, string memory _bookDetails) public payable {\r\n        require(campaigns[_campaignId].isOpen, \"Kampanye sudah ditutup\");\r\n        \r\n        donationCount++;\r\n        \r\n        // Simpan data donasi\r\n        donations[donationCount] = Donation(\r\n            donationCount,\r\n            _campaignId,\r\n            msg.sender,\r\n            msg.value,\r\n            _bookDetails,\r\n            block.timestamp\r\n        );\r\n\r\n        // Update total terkumpul di kampanye\r\n        campaigns[_campaignId].currentAmount += msg.value;\r\n        \r\n        // Link donasi ke kampanye\r\n        campaignToDonationIds[_campaignId].push(donationCount);\r\n\r\n        emit NewDonation(donationCount, _campaignId, msg.sender, msg.value, _bookDetails);\r\n    }\r\n}",
  "sourcePath": "D:\\FOLDER A\\DonasiBukuProject\\blockchain\\contracts\\BookDonation.sol",
  "compiler": {
    "name": "solc",
    "version": "0.8.21+commit.d9974bed.Emscripten.clang"
  },
  "schemaVersion": "3.4.16",
  "updatedAt": "2025-12-11T11:00:01.344Z",
  "networkType": "ethereum",
  "devdoc": {
    "kind": "dev",
    "methods": {},
    "version": 1
  },
  "userdoc": {
    "kind": "user",
    "methods": {},
    "version": 1
  }
}