{
  "contractName": "BookDonation",
  "abi": [
    {
      "inputs": [],
      "stateMutability": "nonpayable",
      "type": "constructor"
    },
    {
      "anonymous": false,
      "inputs": [
        {
          "indexed": false,
          "internalType": "uint256",
          "name": "id",
          "type": "uint256"
        },
        {
          "indexed": false,
          "internalType": "address",
          "name": "creator",
          "type": "address"
        },
        {
          "indexed": false,
          "internalType": "uint256",
          "name": "target",
          "type": "uint256"
        }
      ],
      "name": "CampaignCreated",
      "type": "event"
    },
    {
      "anonymous": false,
      "inputs": [
        {
          "indexed": false,
          "internalType": "uint256",
          "name": "id",
          "type": "uint256"
        },
        {
          "indexed": false,
          "internalType": "uint256",
          "name": "campaignId",
          "type": "uint256"
        },
        {
          "indexed": false,
          "internalType": "address",
          "name": "donor",
          "type": "address"
        },
        {
          "indexed": false,
          "internalType": "uint256",
          "name": "amount",
          "type": "uint256"
        },
        {
          "indexed": false,
          "internalType": "string",
          "name": "details",
          "type": "string"
        }
      ],
      "name": "NewDonation",
      "type": "event"
    },
    {
      "inputs": [],
      "name": "campaignCount",
      "outputs": [
        {
          "internalType": "uint256",
          "name": "",
          "type": "uint256"
        }
      ],
      "stateMutability": "view",
      "type": "function",
      "constant": true
    },
    {
      "inputs": [],
      "name": "campaignFee",
      "outputs": [
        {
          "internalType": "uint256",
          "name": "",
          "type": "uint256"
        }
      ],
      "stateMutability": "view",
      "type": "function",
      "constant": true
    },
    {
      "inputs": [
        {
          "internalType": "uint256",
          "name": "",
          "type": "uint256"
        },
        {
          "internalType": "uint256",
          "name": "",
          "type": "uint256"
        }
      ],
      "name": "campaignToDonationIds",
      "outputs": [
        {
          "internalType": "uint256",
          "name": "",
          "type": "uint256"
        }
      ],
      "stateMutability": "view",
      "type": "function",
      "constant": true
    },
    {
      "inputs": [
        {
          "internalType": "uint256",
          "name": "",
          "type": "uint256"
        }
      ],
      "name": "campaigns",
      "outputs": [
        {
          "internalType": "uint256",
          "name": "id",
          "type": "uint256"
        },
        {
          "internalType": "address",
          "name": "creator",
          "type": "address"
        },
        {
          "internalType": "uint256",
          "name": "targetAmount",
          "type": "uint256"
        },
        {
          "internalType": "uint256",
          "name": "currentAmount",
          "type": "uint256"
        },
        {
          "internalType": "bool",
          "name": "isOpen",
          "type": "bool"
        }
      ],
      "stateMutability": "view",
      "type": "function",
      "constant": true
    },
    {
      "inputs": [],
      "name": "donationCount",
      "outputs": [
        {
          "internalType": "uint256",
          "name": "",
          "type": "uint256"
        }
      ],
      "stateMutability": "view",
      "type": "function",
      "constant": true
    },
    {
      "inputs": [
        {
          "internalType": "uint256",
          "name": "",
          "type": "uint256"
        }
      ],
      "name": "donations",
      "outputs": [
        {
          "internalType": "uint256",
          "name": "id",
          "type": "uint256"
        },
        {
          "internalType": "uint256",
          "name": "campaignId",
          "type": "uint256"
        },
        {
          "internalType": "address",
          "name": "donor",
          "type": "address"
        },
        {
          "internalType": "uint256",
          "name": "amount",
          "type": "uint256"
        },
        {
          "internalType": "string",
          "name": "bookDetails",
          "type": "string"
        },
        {
          "internalType": "uint256",
          "name": "timestamp",
          "type": "uint256"
        }
      ],
      "stateMutability": "view",
      "type": "function",
      "constant": true
    },
    {
      "inputs": [],
      "name": "owner",
      "outputs": [
        {
          "internalType": "address",
          "name": "",
          "type": "address"
        }
      ],
      "stateMutability": "view",
      "type": "function",
      "constant": true
    },
    {
      "inputs": [
        {
          "internalType": "uint256",
          "name": "_targetAmount",
          "type": "uint256"
        }
      ],
      "name": "createCampaignPaid",
      "outputs": [],
      "stateMutability": "payable",
      "type": "function",
      "payable": true
    },
    {
      "inputs": [
        {
          "internalType": "uint256",
          "name": "_campaignId",
          "type": "uint256"
        }
      ],
      "name": "approveCampaignAndPay",
      "outputs": [],
      "stateMutability": "nonpayable",
      "type": "function"
    },
    {
      "inputs": [
        {
          "internalType": "uint256",
          "name": "_campaignId",
          "type": "uint256"
        },
        {
          "internalType": "string",
          "name": "_bookDetails",
          "type": "string"
        }
      ],
      "name": "donate",
      "outputs": [],
      "stateMutability": "payable",
      "type": "function",
      "payable": true
    },
    {
      "inputs": [],
      "name": "withdrawFees",
      "outputs": [],
      "stateMutability": "nonpayable",
      "type": "function"
    }
  ],
  "bytecode": "0x6080604052662386f26fc100006001556000600255600060035534801561002557600080fd5b50600080546001600160a01b03191633179055610b38806100476000396000f3fe60806040526004361061009c5760003560e01c80638a5be9b7116100645780638a5be9b7146101a15780638d59d1f1146101b75780638da5cb5b146101ca578063d86d8c1e14610202578063f72ca20814610215578063f8626af81461023557600080fd5b8063141961bc146100a15780632abfab4d146101305780633ba6c9b814610154578063476343ee146101745780637274e30d1461018b575b600080fd5b3480156100ad57600080fd5b506100f96100bc36600461079c565b60046020819052600091825260409091208054600182015460028301546003840154939094015491936001600160a01b0390911692909160ff1685565b604080519586526001600160a01b0390941660208601529284019190915260608301521515608082015260a0015b60405180910390f35b34801561013c57600080fd5b5061014660035481565b604051908152602001610127565b34801561016057600080fd5b5061014661016f3660046107b5565b610267565b34801561018057600080fd5b50610189610298565b005b34801561019757600080fd5b5061014660025481565b3480156101ad57600080fd5b5061014660015481565b6101896101c53660046107ed565b610322565b3480156101d657600080fd5b506000546101ea906001600160a01b031681565b6040516001600160a01b039091168152602001610127565b61018961021036600461079c565b6104c0565b34801561022157600080fd5b5061018961023036600461079c565b6105e8565b34801561024157600080fd5b5061025561025036600461079c565b6106d3565b604051610127969594939291906108ee565b6006602052816000526040600020818154811061028357600080fd5b90600052602060002001600091509150505481565b6000546001600160a01b031633146102e55760405162461bcd60e51b815260206004820152600b60248201526a213ab5b0b71030b236b4b760a91b60448201526064015b60405180910390fd5b600080546040516001600160a01b03909116914780156108fc02929091818181858888f1935050505015801561031f573d6000803e3d6000fd5b50565b6000828152600460208190526040909120015460ff1661037d5760405162461bcd60e51b815260206004820152601660248201527504b616d70616e796520737564616820646974757475760541b60448201526064016102dc565b6003805490600061038d8361094a565b90915550506040805160c081018252600380548083526020808401878152338587019081523460608701908152608087018981524260a08901526000958652600590945296909320855181559051600182015591516002830180546001600160a01b0319166001600160a01b039092169190911790559351918101919091559151909190600482019061042090826109eb565b5060a091909101516005909101556000828152600460205260408120600301805434929061044f908490610aab565b90915550506000828152600660209081526040808320600380548254600181018455928652939094200191909155905490517f3c3b44e1ab33da12078cac96e7aa5a3706fe93a9df720b71e866a7c535cb525a916104b4918590339034908790610ac4565b60405180910390a15050565b60015434101561050a5760405162461bcd60e51b815260206004820152601560248201527442696179612063616d706169676e206b7572616e6760581b60448201526064016102dc565b6002805490600061051a8361094a565b90915550506040805160a0810182526002805480835233602080850182815285870188815260006060808901828152600160808b018181529884526004808852938c90209a518b559451948a0180546001600160a01b0319166001600160a01b03909616959095179094559151888801559151600388015593519501805460ff19169515159590951790945591548451908152928301919091529181018390527f63e3678c8493a16f8ba43ae9e547231762ca04526dac2c388bd2c26d89401851910160405180910390a150565b6000546001600160a01b031633146106305760405162461bcd60e51b815260206004820152600b60248201526a213ab5b0b71030b236b4b760a91b60448201526064016102dc565b60008181526004602081905260409091209081015460ff166106875760405162461bcd60e51b815260206004820152601060248201526f10d85b5c185a59db881a5b9d985b1a5960821b60448201526064016102dc565b60048101805460ff19169055600080546001546040516001600160a01b039092169281156108fc029290818181858888f193505050501580156106ce573d6000803e3d6000fd5b505050565b60056020526000908152604090208054600182015460028301546003840154600485018054949593946001600160a01b0390931693919261071390610963565b80601f016020809104026020016040519081016040528092919081815260200182805461073f90610963565b801561078c5780601f106107615761010080835404028352916020019161078c565b820191906000526020600020905b81548152906001019060200180831161076f57829003601f168201915b5050505050908060050154905086565b6000602082840312156107ae57600080fd5b5035919050565b600080604083850312156107c857600080fd5b50508035926020909101359150565b634e487b7160e01b600052604160045260246000fd5b6000806040838503121561080057600080fd5b82359150602083013567ffffffffffffffff8082111561081f57600080fd5b818501915085601f83011261083357600080fd5b813581811115610845576108456107d7565b604051601f8201601f19908116603f0116810190838211818310171561086d5761086d6107d7565b8160405282815288602084870101111561088657600080fd5b8260208601602083013760006020848301015280955050505050509250929050565b6000815180845260005b818110156108ce576020818501810151868301820152016108b2565b506000602082860101526020601f19601f83011685010191505092915050565b86815285602082015260018060a01b038516604082015283606082015260c06080820152600061092160c08301856108a8565b90508260a0830152979650505050505050565b634e487b7160e01b600052601160045260246000fd5b60006001820161095c5761095c610934565b5060010190565b600181811c9082168061097757607f821691505b60208210810361099757634e487b7160e01b600052602260045260246000fd5b50919050565b601f8211156106ce57600081815260208120601f850160051c810160208610156109c45750805b601f850160051c820191505b818110156109e3578281556001016109d0565b505050505050565b815167ffffffffffffffff811115610a0557610a056107d7565b610a1981610a138454610963565b8461099d565b602080601f831160018114610a4e5760008415610a365750858301515b600019600386901b1c1916600185901b1785556109e3565b600085815260208120601f198616915b82811015610a7d57888601518255948401946001909101908401610a5e565b5085821015610a9b5787850151600019600388901b60f8161c191681555b5050505050600190811b01905550565b80820180821115610abe57610abe610934565b92915050565b85815284602082015260018060a01b038416604082015282606082015260a060808201526000610af760a08301846108a8565b97965050505050505056fea26469706673582212207c68a443defa380a7b16d2ce544ebb96566619e131281246a83794c0d28f3b6664736f6c63430008150033",
  "immutableReferences": {},
  "source": "// SPDX-License-Identifier: MIT\r\npragma solidity ^0.8.0;\r\n\r\ncontract BookDonation {\r\n\r\n    address public owner;\r\n    uint public campaignFee = 0.01 ether;\r\n\r\n    constructor() {\r\n        owner = msg.sender;\r\n    }\r\n\r\n    struct Donation {\r\n        uint id;\r\n        uint campaignId;\r\n        address donor;\r\n        uint amount;\r\n        string bookDetails;\r\n        uint timestamp;\r\n    }\r\n\r\n    struct Campaign {\r\n        uint id;\r\n        address creator;\r\n        uint targetAmount;\r\n        uint currentAmount;\r\n        bool isOpen;\r\n    }\r\n\r\n    uint public campaignCount = 0;\r\n    uint public donationCount = 0;\r\n\r\n    mapping(uint => Campaign) public campaigns;\r\n    mapping(uint => Donation) public donations;\r\n    mapping(uint => uint[]) public campaignToDonationIds;\r\n\r\n    event CampaignCreated(uint id, address creator, uint target);\r\n    event NewDonation(uint id, uint campaignId, address donor, uint amount, string details);\r\n\r\n    //  CREATE CAMPAIGN + BAYAR FEE\r\n    function createCampaignPaid(uint _targetAmount) public payable {\r\n        require(msg.value >= campaignFee, \"Biaya campaign kurang\");\r\n\r\n        campaignCount++;\r\n        campaigns[campaignCount] = Campaign(\r\n            campaignCount,\r\n            msg.sender,\r\n            _targetAmount,\r\n            0,\r\n            true\r\n        );\r\n\r\n        emit CampaignCreated(campaignCount, msg.sender, _targetAmount);\r\n    }\r\n\r\nfunction approveCampaignAndPay(uint _campaignId) public {\r\n    require(msg.sender == owner, \"Bukan admin\");\r\n\r\n    Campaign storage c = campaigns[_campaignId];\r\n\r\n    require(c.isOpen, \"Campaign invalid\");\r\n\r\n    //  Cegah approve ulang\r\n    c.isOpen = false;\r\n\r\n    //  Transfer fee dari CONTRACT ke ADMIN\r\n    payable(owner).transfer(campaignFee);\r\n}\r\n\r\n\r\n    //  DONATE TETAP\r\n    function donate(uint _campaignId, string memory _bookDetails) public payable {\r\n        require(campaigns[_campaignId].isOpen, \"Kampanye sudah ditutup\");\r\n\r\n        donationCount++;\r\n\r\n        donations[donationCount] = Donation(\r\n            donationCount,\r\n            _campaignId,\r\n            msg.sender,\r\n            msg.value,\r\n            _bookDetails,\r\n            block.timestamp\r\n        );\r\n\r\n        campaigns[_campaignId].currentAmount += msg.value;\r\n        campaignToDonationIds[_campaignId].push(donationCount);\r\n\r\n        emit NewDonation(donationCount, _campaignId, msg.sender, msg.value, _bookDetails);\r\n    }\r\n\r\n    function withdrawFees() public {\r\n        require(msg.sender == owner, \"Bukan admin\");\r\n        payable(owner).transfer(address(this).balance);\r\n    }\r\n}\r\n",
  "sourcePath": "D:\\FOLDER A\\blockchain\\contracts\\BookDonation.sol",
  "compiler": {
    "name": "solc",
    "version": "0.8.21+commit.d9974bed.Emscripten.clang"
  },
  "schemaVersion": "3.4.16",
  "updatedAt": "2025-12-14T21:00:30.944Z",
  "networkType": "ethereum",
  "devdoc": {
    "kind": "dev",
    "methods": {},
    "version": 1
  },
  "userdoc": {
    "kind": "user",
    "methods": {},
    "version": 1
  }
}