{
  "contractName": "BukuDonasi",
  "abi": [
    {
      "inputs": [],
      "stateMutability": "nonpayable",
      "type": "constructor"
    },
    {
      "anonymous": false,
      "inputs": [
        {
          "indexed": false,
          "internalType": "uint256",
          "name": "id",
          "type": "uint256"
        },
        {
          "indexed": false,
          "internalType": "address",
          "name": "donor",
          "type": "address"
        },
        {
          "indexed": false,
          "internalType": "string",
          "name": "bookTitle",
          "type": "string"
        }
      ],
      "name": "DonationCreated",
      "type": "event"
    },
    {
      "anonymous": false,
      "inputs": [
        {
          "indexed": false,
          "internalType": "uint256",
          "name": "id",
          "type": "uint256"
        },
        {
          "indexed": false,
          "internalType": "string",
          "name": "newStatus",
          "type": "string"
        }
      ],
      "name": "StatusUpdated",
      "type": "event"
    },
    {
      "inputs": [],
      "name": "admin",
      "outputs": [
        {
          "internalType": "address",
          "name": "",
          "type": "address"
        }
      ],
      "stateMutability": "view",
      "type": "function",
      "constant": true
    },
    {
      "inputs": [],
      "name": "donationCount",
      "outputs": [
        {
          "internalType": "uint256",
          "name": "",
          "type": "uint256"
        }
      ],
      "stateMutability": "view",
      "type": "function",
      "constant": true
    },
    {
      "inputs": [
        {
          "internalType": "uint256",
          "name": "",
          "type": "uint256"
        }
      ],
      "name": "donations",
      "outputs": [
        {
          "internalType": "uint256",
          "name": "id",
          "type": "uint256"
        },
        {
          "internalType": "address",
          "name": "donor",
          "type": "address"
        },
        {
          "internalType": "string",
          "name": "bookTitle",
          "type": "string"
        },
        {
          "internalType": "string",
          "name": "status",
          "type": "string"
        },
        {
          "internalType": "uint256",
          "name": "timestamp",
          "type": "uint256"
        }
      ],
      "stateMutability": "view",
      "type": "function",
      "constant": true
    },
    {
      "inputs": [
        {
          "internalType": "address",
          "name": "",
          "type": "address"
        },
        {
          "internalType": "uint256",
          "name": "",
          "type": "uint256"
        }
      ],
      "name": "donorDonations",
      "outputs": [
        {
          "internalType": "uint256",
          "name": "",
          "type": "uint256"
        }
      ],
      "stateMutability": "view",
      "type": "function",
      "constant": true
    },
    {
      "inputs": [
        {
          "internalType": "string",
          "name": "_bookTitle",
          "type": "string"
        }
      ],
      "name": "donateBook",
      "outputs": [],
      "stateMutability": "nonpayable",
      "type": "function"
    },
    {
      "inputs": [
        {
          "internalType": "uint256",
          "name": "_id",
          "type": "uint256"
        },
        {
          "internalType": "string",
          "name": "_newStatus",
          "type": "string"
        }
      ],
      "name": "updateStatus",
      "outputs": [],
      "stateMutability": "nonpayable",
      "type": "function"
    },
    {
      "inputs": [
        {
          "internalType": "uint256",
          "name": "_id",
          "type": "uint256"
        }
      ],
      "name": "getDonation",
      "outputs": [
        {
          "internalType": "uint256",
          "name": "",
          "type": "uint256"
        },
        {
          "internalType": "address",
          "name": "",
          "type": "address"
        },
        {
          "internalType": "string",
          "name": "",
          "type": "string"
        },
        {
          "internalType": "string",
          "name": "",
          "type": "string"
        },
        {
          "internalType": "uint256",
          "name": "",
          "type": "uint256"
        }
      ],
      "stateMutability": "view",
      "type": "function",
      "constant": true
    }
  ],
  "bytecode": "0x6080604052600060015534801561001557600080fd5b50336000806101000a81548173ffffffffffffffffffffffffffffffffffffffff021916908373ffffffffffffffffffffffffffffffffffffffff160217905550610d85806100656000396000f3fe608060405234801561001057600080fd5b506004361061007d5760003560e01c8063d1b34dd81161005b578063d1b34dd8146100ec578063ef07a81f14610108578063f851a4401461013c578063f8626af81461015a5761007d565b80631115a265146100825780632abfab4d1461009e5780634395e1bf146100bc575b600080fd5b61009c600480360381019061009791906108f3565b61018e565b005b6100a661036f565b6040516100b39190610a23565b60405180910390f35b6100d660048036038101906100d191906108b7565b610375565b6040516100e39190610a23565b60405180910390f35b6101066004803603810190610101919061095d565b6103a6565b005b610122600480360381019061011d9190610934565b610414565b604051610133959493929190610a7c565b60405180910390f35b6101446105f8565b6040516101519190610a08565b60405180910390f35b610174600480360381019061016f9190610934565b61061c565b604051610185959493929190610a7c565b60405180910390f35b600160008154809291906101a190610c3a565b91905055506040518060a0016040528060015481526020013373ffffffffffffffffffffffffffffffffffffffff1681526020018281526020016040518060400160405280600d81526020017f42656c756d2044696b6972696d000000000000000000000000000000000000008152508152602001428152506002600060015481526020019081526020016000206000820151816000015560208201518160010160006101000a81548173ffffffffffffffffffffffffffffffffffffffff021916908373ffffffffffffffffffffffffffffffffffffffff160217905550604082015181600201908051906020019061029c929190610782565b5060608201518160030190805190602001906102b9929190610782565b5060808201518160040155905050600360003373ffffffffffffffffffffffffffffffffffffffff1673ffffffffffffffffffffffffffffffffffffffff16815260200190815260200160002060015490806001815401808255809150506001900390600052602060002001600090919091909150557f106bb2cfa709e4968c10976e8cf935739956dfdad179b843a8074f3ab21cb256600154338360405161036493929190610a3e565b60405180910390a150565b60015481565b6003602052816000526040600020818154811061039157600080fd5b90600052602060002001600091509150505481565b6000600260008481526020019081526020016000209050818160030190805190602001906103d5929190610782565b507fdc280875b120650ffe3edf5f724f07fd086361a32c2a387fe34b495f5679e77d8383604051610407929190610add565b60405180910390a1505050565b600080606080600080600260008881526020019081526020016000206040518060a0016040529081600082015481526020016001820160009054906101000a900473ffffffffffffffffffffffffffffffffffffffff1673ffffffffffffffffffffffffffffffffffffffff1673ffffffffffffffffffffffffffffffffffffffff1681526020016002820180546104ab90610c08565b80601f01602080910402602001604051908101604052809291908181526020018280546104d790610c08565b80156105245780601f106104f957610100808354040283529160200191610524565b820191906000526020600020905b81548152906001019060200180831161050757829003601f168201915b5050505050815260200160038201805461053d90610c08565b80601f016020809104026020016040519081016040528092919081815260200182805461056990610c08565b80156105b65780601f1061058b576101008083540402835291602001916105b6565b820191906000526020600020905b81548152906001019060200180831161059957829003601f168201915b50505050508152602001600482015481525050905080600001518160200151826040015183606001518460800151955095509550955095505091939590929450565b60008054906101000a900473ffffffffffffffffffffffffffffffffffffffff1681565b60026020528060005260406000206000915090508060000154908060010160009054906101000a900473ffffffffffffffffffffffffffffffffffffffff169080600201805461066b90610c08565b80601f016020809104026020016040519081016040528092919081815260200182805461069790610c08565b80156106e45780601f106106b9576101008083540402835291602001916106e4565b820191906000526020600020905b8154815290600101906020018083116106c757829003601f168201915b5050505050908060030180546106f990610c08565b80601f016020809104026020016040519081016040528092919081815260200182805461072590610c08565b80156107725780601f1061074757610100808354040283529160200191610772565b820191906000526020600020905b81548152906001019060200180831161075557829003601f168201915b5050505050908060040154905085565b82805461078e90610c08565b90600052602060002090601f0160209004810192826107b057600085556107f7565b82601f106107c957805160ff19168380011785556107f7565b828001600101855582156107f7579182015b828111156107f65782518255916020019190600101906107db565b5b5090506108049190610808565b5090565b5b80821115610821576000816000905550600101610809565b5090565b600061083861083384610b3e565b610b0d565b90508281526020810184848401111561085057600080fd5b61085b848285610bc6565b509392505050565b60008135905061087281610d21565b92915050565b600082601f83011261088957600080fd5b8135610899848260208601610825565b91505092915050565b6000813590506108b181610d38565b92915050565b600080604083850312156108ca57600080fd5b60006108d885828601610863565b92505060206108e9858286016108a2565b9150509250929050565b60006020828403121561090557600080fd5b600082013567ffffffffffffffff81111561091f57600080fd5b61092b84828501610878565b91505092915050565b60006020828403121561094657600080fd5b6000610954848285016108a2565b91505092915050565b6000806040838503121561097057600080fd5b600061097e858286016108a2565b925050602083013567ffffffffffffffff81111561099b57600080fd5b6109a785828601610878565b9150509250929050565b6109ba81610b8a565b82525050565b60006109cb82610b6e565b6109d58185610b79565b93506109e5818560208601610bd5565b6109ee81610d10565b840191505092915050565b610a0281610bbc565b82525050565b6000602082019050610a1d60008301846109b1565b92915050565b6000602082019050610a3860008301846109f9565b92915050565b6000606082019050610a5360008301866109f9565b610a6060208301856109b1565b8181036040830152610a7281846109c0565b9050949350505050565b600060a082019050610a9160008301886109f9565b610a9e60208301876109b1565b8181036040830152610ab081866109c0565b90508181036060830152610ac481856109c0565b9050610ad360808301846109f9565b9695505050505050565b6000604082019050610af260008301856109f9565b8181036020830152610b0481846109c0565b90509392505050565b6000604051905081810181811067ffffffffffffffff82111715610b3457610b33610ce1565b5b8060405250919050565b600067ffffffffffffffff821115610b5957610b58610ce1565b5b601f19601f8301169050602081019050919050565b600081519050919050565b600082825260208201905092915050565b6000610b9582610b9c565b9050919050565b600073ffffffffffffffffffffffffffffffffffffffff82169050919050565b6000819050919050565b82818337600083830152505050565b60005b83811015610bf3578082015181840152602081019050610bd8565b83811115610c02576000848401525b50505050565b60006002820490506001821680610c2057607f821691505b60208210811415610c3457610c33610cb2565b5b50919050565b6000610c4582610bbc565b91507fffffffffffffffffffffffffffffffffffffffffffffffffffffffffffffffff821415610c7857610c77610c83565b5b600182019050919050565b7f4e487b7100000000000000000000000000000000000000000000000000000000600052601160045260246000fd5b7f4e487b7100000000000000000000000000000000000000000000000000000000600052602260045260246000fd5b7f4e487b7100000000000000000000000000000000000000000000000000000000600052604160045260246000fd5b6000601f19601f8301169050919050565b610d2a81610b8a565b8114610d3557600080fd5b50565b610d4181610bbc565b8114610d4c57600080fd5b5056fea2646970667358221220ff739c92c58c12084ccd72ae690253d114149fca089d91276b5d50191c4934de64736f6c63430008000033",
  "immutableReferences": {},
  "source": "// SPDX-License-Identifier: MIT\r\npragma solidity ^0.8.0;\r\n\r\ncontract BukuDonasi {\r\n    address public admin;\r\n    uint public donationCount = 0;\r\n\r\n    struct Donation {\r\n        uint id;\r\n        address donor;\r\n        string bookTitle;\r\n        string status; // \"Belum Dikirim\", \"Dalam Pengiriman\", \"Sampai ke Kreator\"\r\n        uint timestamp;\r\n    }\r\n\r\n    mapping(uint => Donation) public donations;\r\n    mapping(address => uint[]) public donorDonations;\r\n\r\n    event DonationCreated(uint id, address donor, string bookTitle);\r\n    event StatusUpdated(uint id, string newStatus);\r\n\r\n    constructor() {\r\n        admin = msg.sender; // Pembuat contract otomatis jadi admin\r\n    }\r\n\r\n    modifier onlyAdmin() {\r\n        require(msg.sender == admin, \"Hanya Admin yang boleh akses\");\r\n        _;\r\n    }\r\n\r\n    function donateBook(string memory _bookTitle) public {\r\n        donationCount++;\r\n        donations[donationCount] = Donation(donationCount, msg.sender, _bookTitle, \"Belum Dikirim\", block.timestamp);\r\n        donorDonations[msg.sender].push(donationCount);\r\n        emit DonationCreated(donationCount, msg.sender, _bookTitle);\r\n    }\r\n\r\n    function updateStatus(uint _id, string memory _newStatus) public {\r\n        // Bisa dimodifikasi agar Kreator juga bisa update jika diperlukan\r\n        // Untuk saat ini kita buat Admin atau user terkait yang bisa update (logic sederhana)\r\n        Donation storage d = donations[_id];\r\n        d.status = _newStatus;\r\n        emit StatusUpdated(_id, _newStatus);\r\n    }\r\n\r\n    function getDonation(uint _id) public view returns (uint, address, string memory, string memory, uint) {\r\n        Donation memory d = donations[_id];\r\n        return (d.id, d.donor, d.bookTitle, d.status, d.timestamp);\r\n    }\r\n}",
  "sourcePath": "D:\\FOLDER A\\DonasiBukuProject\\blockchain\\contracts\\BukuDonasi.sol",
  "compiler": {
    "name": "solc",
    "version": "0.8.0+commit.c7dfd78e.Emscripten.clang"
  },
  "schemaVersion": "3.4.16",
  "updatedAt": "2025-12-01T02:35:55.672Z",
  "networkType": "ethereum",
  "devdoc": {
    "kind": "dev",
    "methods": {},
    "version": 1
  },
  "userdoc": {
    "kind": "user",
    "methods": {},
    "version": 1
  }
}